:020000040800F2
:1030000000500020214F0008E5310008E73100089A
:10301000E9310008EB310008ED3100080000000044
:10302000000000000000000000000000EF31000878
:10303000F131000800000000F3310008F53100080C
:103040006D4F00086D4F00086D4F00086D4F000870
:103050006D4F00086D4F00086D4F00086D4F000860
:103060006D4F00086D4F00086D4F00086D4F000850
:103070006D4F00086D4F00086D4F00086D4F000840
:103080006D4F0008593500086D4F00086D4F00085E
:103090006D4F00086D4F00086D4F00086D4F000820
:1030A0006D4F00086D4F00086D4F00086D4F000810
:1030B0006D4F00086D4F00086D4F00086D4F000800
:1030C0006D4F00086D4F00086D4F00086D4F0008F0
:1030D0006D4F00086D4F00086D4F00086D4F0008E0
:1030E0006D4F00086D4F00086D4F00086D4F0008D0
:1030F0006D4F00086D4F00086D4F00086D4F0008C0
:103100006D4F00086D4F00086D4F00086D4F0008AF
:103110006D4F00086D4F00086D4F00086D4F00089F
:103120006D4F00086D4F00086D4F00086D4F00088F
:10313000000000000000000000000000000000008F
:10314000000000000000000000000000000000007F
:10315000000000000000000000000000000000006F
:10316000000000000000000000000000000000005F
:10317000000000000000000000000000000000004F
:10318000000000000000000000000000000000003F
:10319000000000000000000000000000000000002F
:1031A000000000000000000000000000000000001F
:1031B000000000000000000000000000000000000F
:1031C00000000000000000000000000000000000FF
:1031D00000000000000000000000000000000000EF
:0431E0005FF8E0F1C3
:1031E4007047FEE7FEE7FEE7FEE77047704770476B
:1031F40070470000394B82B01A6842F00100186031
:103204005968374A0A405A60186820F0847121F4DA
:1032140080321A60186820F4802119605A684FF4CB
:103224001F0122F4FE00002258609960009201926E
:10323400186840F480311960284B1A6802F4003091
:10324400019000994A1C0092019818B90099B1F5AF
:10325400A06FF1D11B6813F4003218BF0122019250
:103264000198012804D01F4A1F4B9A6002B070478E
:103274001E490B6843F010020A60086820F003033B
:103284000B600A68A1F5805342F002000860596897
:1032940059605A685A60586840F4806159605A68A5
:1032A40022F47C105860596841F4E8125A60186896
:1032B40040F0807119601868084A8101FBD5536891
:1032C40023F003015160506840F002035360034A45
:1032D400516801F00C000828F9D1C4E7001002403D
:1032E4000000FFF80030000800ED00E0002002407C
:1032F400144A154B516801F00C00042803D0082827
:1033040004D0124900E0124919600FE05168506876
:10331400C1F383410231C00301D40E4804E0526872
:1033240090034CBF0C480A4841431960054B5A6846
:10333400054BC2F3031019181A68087922FA00F22F
:103344001A607047001002400000002000127A004A
:10335400001BB70000093D00808D5B0008B54FF0ED
:103364008040082101F03BFA4FF08040022101F037
:1033740062FA4FF08040012101F019F84FF08040CB
:1033840001F080FB01460028F8D14FF08040BDE8F1
:10339400084001F00CB810B504460120014600F0C5
:1033A400CBFC06496000441C4FF080408C8000F048
:1033B40081FEBDE81040FFF7D1BF00BF140000201C
:1033C40010B504460120014600F0B6FC6000064931
:1033D400441CCC814FF080400A3100F06BFEBDE804
:1033E4001040FFF7BBBF00BF1400002030B504201D
:1033F40087B0012100F094FC1E4C01214FF40030F1
:1034040000F09AFC0320182104238DF806008DF89F
:103414000710204601A91D46ADF8043000F07BFAE0
:103424000822204601A9ADF80420A4F544448DF8EF
:10343400075000F070FA00200C214FF46143ADF8FE
:103444000C00ADF80E00ADF81000ADF81400ADF8A6
:103454001210204602A9029301F080FB204680212D
:10346400012201F01AFC2046012101F0F0FB07B013
:1034740030BD00BF0008014070B5134C0646012062
:103484008CB00D46014600F03FFC204600F0F4F8F5
:103494000E4B002110208022019303900591079187
:1034A400089109914FF440530B91204601A90692CB
:1034B400029604950A9300F057F92046022101224E
:1034C40000F08AF90CB070BD800002400444004052
:1034D40010B5154B1A785B78591C8A4200D120E04C
:1034E4000F2B03D112B90029FDD11AE00F4C0E495C
:1034F40044F82300581CC0B2102808BF00209A4288
:1035040048700FD154F82240204601F02FFD81B2BB
:103514002046FFF7B1FF06480121BDE8104000F046
:1035240050B9FEE710BD00BF3C0000204000002061
:103534008000024007B5002011238DF805008DF8A6
:103544000600012101A88DF804308DF8071000F061
:103554003DF80EBD10B54FF0007000F063F901287E
:1035640023D10021114800F02CF9114B1A78501C7A
:10357400C1B2102908BF002119701A785B789342F0
:103584000DD00C4C54F82240204601F0EFFC81B2DF
:103594002046FFF771FF0548012100F012F94FF0B2
:1035A4000070BDE8104000F04BB910BD800002402F
:1035B4003C0000204000002040F0BF60024B40F47B
:1035C4000031D960704700BF00ED00E0C37810B54A
:1035D40003B3164CE168CB43C3F302244178C4F12E
:1035E400040201FA02F10F2222FA04F28478037829
:1035F40022400A43110103F16043CAB203F5614159
:1036040081F800230078012200F01F03410902FA27
:1036140003F007E00078012200F01F03410902FAD9
:1036240003F02031024B43F8210010BD00ED00E00F
:1036340000E100E021F0604121F07F02014B1043E2
:103644009860704700ED00E0044B1A6909B110431B
:1036540001E022EA00001861704700BF00ED00E0BD
:10366400044B04281A680CBF42F0040222F004023E
:103674001A60704710E000E002684FF6FE731340D2
:1036840003602D4B00219842016041608160C1605C
:1036940022D02A49884229D0294B984230D029493E
:1036A400884237D0284B98423ED0284B984206D1C6
:1036B40053F8681C41F4700043F8680C70472449BF
:1036C400884206D151F87C0C40F0706241F87C2CA1
:1036D4007047204B984206D153F8042C42F00F0156
:1036E40043F8041C70471C49884206D151F8183C21
:1036F40043F0F00041F8180C7047184B984206D17B
:1037040053F82C2C42F4706143F82C1C7047144974
:10371400884206D151F8403C43F4704041F8400CD3
:103724007047104B984205D153F8542C42F4702141
:1037340043F8541C704700BF080002401C000240BC
:103744003000024044000240580002406C00024035
:1037540080000240080402401C040240300402407D
:10376400440402405804024070B506688C680D6A2F
:1037740026F4FF4222F070060A6945EA04034C6904
:1037840013438A692343CC6913431C434B6A44EAB9
:1037940003028B6A1A4332430260CB680A684968A1
:1037A40043608260C16070BD002303604360836036
:1037B400C360036143618361C361036243628362E3
:1037C400704719B1016841F0010303E002684FF644
:1037D400FE7313400360704703680AB1194301E0A4
:1037E40023EA01010160704741607047406880B27C
:1037F4007047C3004CBF044B044B196801420CBF13
:1038040000200120704700BF000402400000024075
:10381400C3004CBF014B024B586070470004024088
:1038240000000240C3004CBF034B044B1968014223
:103834000CBF002001207047000402400000024039
:10384400C3004CBF014B024B586070470004024058
:103854000000024008B5234B984205D10420012101
:1038640000F076FA042036E01F49884205D108208A
:10387400012100F06DFA08202DE01C4A904205D188
:103884001020012100F064FA102024E0184B984223
:1038940005D12020012100F05BFA20201BE015490E
:1038A400884205D14020012100F052FA402012E064
:1038B400114A904205D18020012100F049FA80206C
:1038C40009E00E4B98420BD14FF48070012100F0B7
:1038D4003FFA4FF480700021BDE8084000F038BA88
:1038E40008BD00BF00080140000C01400010014069
:1038F4000014014000180140001C01400020014058
:103904000120014608B500F023FA01200021BDE89A
:10391400084000F01DBACB78F0B5DA0648BF8A78C3
:10392400098803F00F0548BF154311F0FF0F1ED09F
:1039340004680022012707FA02F707EA0106BE42DB
:1039440011D197004FF00F0C0CFA07FC05FA07F79A
:1039540024EA0C04282B44EA070401D1466102E05E
:10396400482B08BF06610132082AE3D10460FF290D
:1039740020D94468002202F10806012707FA06F755
:1039840007EA0106BE4211D197004FF00F0C0CFA62
:1039940007FC05FA07F724EA0C04282B44EA070479
:1039A40001D1466102E0482B08BF06610132082AB2
:1039B400E1D14460F0BD4FF6FF730221042203807D
:1039C4008170C2707047836819420CBF00200120C7
:1039D4007047806880B27047C36819420CBF0020EA
:1039E40001207047C06880B270470161704741612F
:1039F40070470AB10161704741617047C160704707
:103A040041F4803383618161836183698369704791
:103A1400054A10B514684FF68073234041EA00113B
:103A240041EA0300106010BD00000140014B186022
:103A3400704700BF1C0020420028174B30B500F42B
:103A44004014B4BFDB695B68B4F5401F82B207D190
:103A5400114C23F07063656825F0706565600FE0B4
:103A6400C40205D5C0F30344032505FA04F403E0B6
:103A7400440D240102FA04F423EA040343F07063BE
:103A840021B1410D090102FA01F213430028024851
:103A9400B4BFC361436030BD0000014001F00302C4
:103AA40030B592000F2404FA02F400FA02F0074B36
:103AB4008908023153F8215025EA040443F82140CF
:103AC40053F82140044343F8214030BD0000014035
:103AD400014B1860704700BFDC0020420D4B1A6890
:103AE40042F00100186059680B4A0A405A6018688D
:103AF40020F0847121F480321A60186820F4802147
:103B040019605A684FF41F0122F4FE00586099604E
:103B1400704700BF001002400000FFF80B4BB0F5E7
:103B2400803F1A6822F4803119601A6822F48021D7
:103B3400196006D0B0F5802F07D1186840F4A02290
:103B440002E0196841F480321A60704700100240A4
:103B5400034B1A6822F0F80141EAC000186070476C
:103B640000100240014B1860704700BF0000424241
:103B7400034B5A6822F47C12104301435960704786
:103B840000100240014B1860704700BF60004242C1
:103B9400034B5A6822F0030108435860704700BF82
:103BA40000100240024B586800F00C00704700BF40
:103BB40000100240034B5A6822F0F0010843586099
:103BC400704700BF00100240034B5A6822F4E061C2
:103BD40008435860704700BF00100240034B5A6806
:103BE40022F4605141EAC00058607047001002405E
:103BF400044B1A7809B1104301E022EA000018705E
:103C0400704700BF09100240014B1860704700BFA5
:103C1400D8004242034B5A6822F44041084358609A
:103C2400704700BF00100240064B002201281A70A2
:103C34001A7004D0042804D10520187001E018700B
:103C44007047704720100240014B1860704700BF56
:103C540080044242024B1A6A10431862704700BF44
:103C640000100240014B1860704700BF3C04424200
:103C74001F4B10B55A6802F00C01042903D008291F
:103C840004D01C4A00E01C4A02600FE05C685968DA
:103C9400C4F38342941CC90301D4184904E05B684B
:103CA40099034CBF164914494C430460104A154B00
:103CB4005468C4F303115C5C016821FA04F14160A7
:103CC4005468C4F302241C5D21FA04F4846054682B
:103CD400C4F3C2241C5D21FA04F1C1605268C2F32A
:103CE40081329B181A7CB1FBF2F1016110BD00BF57
:103CF4000010024000127A00001BB70000093D00CA
:103D0400808D5B0028000020044B5A6909B11043E0
:103D140001E022EA00005861704700BF0010024031
:103D2400044B9A6909B1104301E022EA000098614A
:103D3400704700BF00100240044BDA6909B1104318
:103D440001E022EA0000D861704700BF0010024081
:103D5400044BDA6809B1104301E022EA0000D8609C
:103D6400704700BF00100240044B1A6909B11043A8
:103D740001E022EA00001861704700BF0010024011
:103D8400014B1860704700BF40044242014B186069
:103D9400704700BF4C004242014B1870704700BF8F
:103DA400071002404309012B074A01D1136803E0BD
:103DB400022B0CBF136A536A00F01F0023FA00F1B0
:103DC40001F00100704700BF0010024007B5002356
:103DD40001933120FFF7E6FF01994A1C0192019BF0
:103DE400B3F5A06F01D00028F3D03120FFF7DAFF3C
:103DF400003018BF01200EBD024B5A6A42F0807099
:103E04005862704700100240034B996808420CBF87
:103E140000200120704700BF00100240014B1870C1
:103E2400704700BF0A10024030B5048C24F001052D
:103E34002C04250C0584048BA5B225F0F3052A4334
:103E440042EA0313114A048C9042A4B29DB215D0E5
:103E540002F50063984211D0B0F1804F0ED0A3F563
:103E6400983290420AD002F58063984206D003F556
:103E74008062904218BF24F00A0401D124F00204A5
:103E840044F0010421430583018430BD002C01402A
:103E940030B5048C24F010052C04250C0584048B07
:103EA400058C24F440742405240D44EA022242EAD9
:103EB4000333144AADB290429BB212D002F50062B1
:103EC40090420ED0B0F1804F0BD0A2F598329042C0
:103ED40007D002F58062904203D002F580629042DE
:103EE40007D125F0200242F0100545EA011189B2FC
:103EF40004E025F0A00545F010052943038301845F
:103F040030BD00BF002C014008B55A4B984207D180
:103F14004FF400600121FFF71BFF4FF40060A2E0A3
:103F2400B0F1804F05D101200146FFF71DFF0120AC
:103F340007E05149884209D102200121FFF714FF0B
:103F440002200021BDE80840FFF70EBF4B4A904213
:103F540005D104200121FFF707FF0420F1E7484BB6
:103F6400984205D108200121FFF7FEFE0820E8E76A
:103F74004449884205D110200121FFF7F5FE1020A5
:103F8400DFE7414A904205D120200121FFF7ECFEF2
:103F94002020D6E73D4B984207D14FF40050012131
:103FA400FFF7D6FE4FF400505DE03949884207D14F
:103FB4004FF400200121FFF7CBFE4FF4002052E024
:103FC400344A904207D14FF480100121FFF7C0FE1C
:103FD4004FF4801047E0304B984207D14FF4001063
:103FE4000121FFF7B5FE4FF400103CE02B49884255
:103FF40005D140200121FFF7B7FE4020A1E7284A60
:10400400904205D180200121FFF7AEFE802098E781
:10401400244B984207D14FF480700121FFF7A4FE8E
:104024004FF480708DE72049884207D14FF48030E7
:104034000121FFF78DFE4FF4803014E01B4A9042BB
:1040440007D14FF400300121FFF782FE4FF4003016
:1040540009E0174B98420BD14FF480200121FFF760
:1040640077FE4FF480200021BDE80840FFF770BEC2
:1040740008BD00BF002C01400004004000080040BF
:10408400000C0040001000400014004000340140C7
:10409400004C014000500140005401400018004011
:1040A400001C00400020004000400140004401404A
:1040B40000480140224A038890429BB212D002F584
:1040C400006290420ED0B0F1804F0BD0A2F598322E
:1040D400904207D002F58062904203D002F58062DC
:1040E400904203D14A8823F070031343154A904247
:1040F40008D002F58062904204D023F44073CA8849
:104104009BB2134303808B880A8883850C4B0285FA
:1041140098420FD003F5006290420BD002F5406341
:10412400984207D003F58062904203D002F5806381
:10413400984201D1097A018601228282704700BF28
:10414400002C014000100040038C70B523F00102E4
:104154001404250C0584068C8388028B9CB222F0FF
:1041640073052B040D881A0C26F0020633042A4327
:104174004E880D891B0C3543ADB22B43134DA84219
:104184000FD005F50065A8420BD005F54065A8429F
:1041940007D005F58065A84203D005F58065A842DF
:1041A4000ED123F008064B898D881E4326F00403A4
:1041B4002B43CE898D8924F440743543ADB22C430E
:1041C400C988848002838186038470BD002C0140E9
:1041D400038C30B523F010021404250C0584038CE1
:1041E4008288048B23F0200324F4E6452C040D88F4
:1041F400240C44EA05241D042B0C0D8992B243EAD5
:1042040005134D88A4B243EA0513124D9BB2A8428C
:1042140003D005F50065A84215D14D8923F080032C
:104224009BB243EA05134FF6BF751D408B8822F4F9
:10423400406245EA0315ABB28D8942EA8502CD8915
:1042440042EA850292B2C98882800483018703848A
:1042540030BD00BF002C0140038C30B523F48072C4
:104264001404250C0584038C8288848B23F4007346
:1042740024F073052C040D88240C2C431D042B0CF2
:104284000D8992B243EA05234D8843EA0523124D72
:104294009BB2A84203D005F50065A84215D14D890B
:1042A40023F400639BB243EA05234FF6FF351D4018
:1042B4008B8822F4405245EA0325ABB28D8942EA49
:1042C4000512CD8942EA051292B2C988828084839C
:1042D4008187038430BD00BF002C0140038C30B5BE
:1042E40023F480521404250C0584038C8288858B66
:1042F40094B225F4E64215042A0C0D8823F40053E5
:1043040042EA05221D042B0C0D8992B243EA0533BF
:104314004D8843EA05330A4D9BB2A84203D005F504
:104324000065A84205D18D8924F4804444EA8514AB
:10433400A4B2C98884808283A0F84010038430BD6D
:10434400002C01404A880B8813438A881343CA8887
:1043540013430A8913434A89898913430B439BB244
:10436400A0F84430704700214FF6FF73838001802A
:10437400C1804180017270470023038043808380A1
:10438400C380038143818381C38170470023012259
:10439400038043808280C3800381704700230380AD
:1043A40043808380C3800381438183817047038872
:1043B40019B199B241F0010303E023F001010A04A9
:1043C400130C03807047B0F8443029B16FEA4343BB
:1043D4006FEA53418AB201E059044A0CA0F8442020
:1043E400704783899BB20AB1194301E023EA0101B2
:1043F40081817047818270470A43A0F84820704742
:1044040083899BB20AB1194301E023EA0101818146
:104414007047038923F007010A04130C03817047D2
:10442400038923F0700213041A0C114301810189DA
:104434008BB243F007020281704738B50D4611462E
:104444000122602D044602D1FFF722FD01E0FFF7AF
:10445400EBFC238923F0700001040A0C45EA0203F3
:104464002381208981B241F00702228138BD10B531
:104474000489E4B221430A4342EA03239CB204813F
:1044840010BD10B50446FFF7F2FF238998B240F43B
:104494008041218110BD10B50446FFF7E8FF238950
:1044A40023F0770001040A0C42F07703238110BD46
:1044B400018582827047038823F0700213041A0C6A
:1044C400114301807047038923F0700213041A0C0E
:1044D40011430181704770B50589048B068C24F45F
:1044E4004074B6B224F0030426F0220625F0070532
:1044F400240432432D04240C2D0C44F4807442EA29
:104504000313294344F001049EB201810483068409
:1045140070BD038B23F0700213041A0C1143018342
:104524007047038B23F4E04213041A0C42EA01217E
:104534008BB203837047838B23F0700213041A0C2D
:10454400114381837047838B23F4E04213041A0CD4
:1045540042EA01218BB283837047038819B199B26F
:1045640041F0800303E023F080010A04130C03806C
:104574007047838819B199B241F0040303E023F032
:1045840004010A04130C83807047838819B199B21B
:1045940041F0080303E023F008010A04130C8380AC
:1045A4007047838819B199B241F0010303E023F005
:1045B40001010A04130C83807047038B23F0080263
:1045C40013041A0C114301837047038B23F4006214
:1045D40013041A0C42EA01218BB203837047838BC4
:1045E40023F0080213041A0C114381837047838B50
:1045F40023F4006213041A0C42EA01218BB2838370
:104604007047038B23F0040213041A0C1143018333
:104614007047038B23F4806213041A0C42EA0121CD
:104624008BB203837047838B23F0040213041A0CA8
:10463400114381837047838B23F4806213041A0C23
:1046440042EA01218BB283837047038B23F08002FB
:1046540013041A0C114301837047038B09025A0493
:1046640041EA52439AB202837047838B23F080025B
:1046740013041A0C114381837047838B09025A0473
:1046840041EA52439AB282837047038C23F00202B8
:1046940013041A0C114301847047038C23F008029D
:1046A40013041A0C114301847047038C23F0200275
:1046B40013041A0C42EA01118BB203847047038C71
:1046C40023F0800213041A0C42EA01118BB2038412
:1046D4007047038C23F4007213041A0C42EA01217C
:1046E4008BB203847047038C23F4006213041A0C06
:1046F40042EA01218BB203847047038C23F40052F5
:1047040013041A0C42EA01318BB20384704701236B
:1047140003FA01F302FA01F210B5048CA4B224EAFC
:1047240003030384038C42EA03018AB2028410BDAA
:10473400042303FA01F302FA01F210B5048CA4B2C3
:1047440024EA03030384038C42EA03018AB2028449
:1047540010BD30B5012404FA01F4058C00F11803EE
:10476400ADB225EA0404048409B1082906D1490834
:10477400C85820F07000C850C85809E00439C1F383
:104784004E01C858120220F4E040C850C85892B2F2
:104794000243CA5030BD038819B199B241F00203F3
:1047A40003E023F002010A04130C0380704703881A
:1047B40019B199B241F0040303E023F004010A049F
:1047C400130C03807047838819B199B241F08003B8
:1047D40003E023F080010A04130C838070470388EC
:1047E40023F0080213041A0C028003889AB21143BE
:1047F40001807047838823F0700213041A0C8280AE
:1048040083889AB2114381807047038923F0070299
:1048140013041A0C028103899AB21143018170476F
:10482400038923F0800213041A0C028103899AB2CB
:104834001143018170478184704781857047818667
:1048440070470187704781877047A0F84010704710
:10485400038B23F00C0213041A0C0283038B9AB209
:10486400114301837047038B23F4406213041A0C31
:104874000283038B9AB242EA01218BB2038370470D
:10488400F8B50C46A2884988B4F800E0054600292A
:104894000CBF02270027012A14BF01260226238900
:1048A400BEF1000F11D1FFF7BFFA2846E188FFF7E8
:1048B400CFFF2846394632462389FFF7E9FAE188D3
:1048C4002846BDE8F840FFF7CEBFFFF7E1FA2846D7
:1048D400E188FFF7C8FF2846394632462389FFF7A7
:1048E400A3FAE1882846BDE8F840FFF7B1BF838BFF
:1048F40023F00C0213041A0C8283838B9AB21143A3
:1049040081837047838B23F4406213041A0C8283DF
:10491400838B9AB242EA01218BB283837047F8B544
:104924000B880D4604464988AA8843B92B89FFF7AA
:104934007BFAE9882046BDE8F840FFF789BF042BDD
:1049440008D12B89FFF7A4FAE9882046BDE8F8408E
:10495400FFF789BF082B0E462F89008C3BD120F42A
:1049640080731804030C2384A08B83B223F0F30315
:1049740043EA0717364B208CBFB29C4280B247EA09
:10498400020212D003F500639C420ED0B4F1804FB2
:104994000BD0A3F598339C4207D003F580639C4267
:1049A40003D003F580639C4207D120F4007040EAF1
:1049B40006218BB243F4807305E020F4206041F4B7
:1049C400807140EA0103E9882046A2832384BDE87C
:1049D400F840FFF78CBF20F480531804030C2384A1
:1049E400A38B208C23F440731B051B0D43EA022286
:1049F40042EA0733164A80B294429BB212D002F5BF
:104A0400006294420ED0B4F1804F0BD0A2F59832DC
:104A1400944207D002F58062944203D002F580628A
:104A2400944207D120F4005040EA063291B241F496
:104A3400805205E047F6FF52024041F480510A4398
:104A4400E9882046A3832284BDE8F840FFF75ABFD3
:104A5400002C0140038823F4407213041A0C0280D2
:104A640003889AB2114301807047808E80B27047E8
:104A7400008F80B27047808F80B27047B0F84000DA
:104A840080B27047808C80B27047008D80B27047CE
:104A9400038A19420CBF002001207047C9438AB21F
:104AA40002827047038A828911EA030092B203D01A
:104AB40011420CBF002001207047C9438AB2028210
:104AC400704700BF08B5204B98420BD101214FF429
:104AD4008040FFF73DF94FF480400021BDE80840D5
:104AE400FFF736B91949884207D14FF40030012144
:104AF400FFF73AF94FF400301FE0154A904207D10E
:104B04004FF480200121FFF72FF94FF4802014E0A7
:104B1400104B984207D14FF400200121FFF724F9EC
:104B24004FF4002009E00C4988420BD14FF4801067
:104B34000121FFF719F94FF480100021BDE8084066
:104B4400FFF712B908BD00BF00380140004400401F
:104B540000480040004C004000500040038A30B53B
:104B64000D460446EA8898B220F44051114321824C
:104B7400A3892889A98823F4B05340EA01026889EB
:104B840023F00C0102430804030C1A4391B2A181DF
:104B9400A08AAA8983B223F4407187B01143A18209
:104BA40001A8FFF765F81848A38984420CBF04984C
:104BB400039819B200294FF019032A6803FB00F087
:104BC40001DA510000E09100B0FBF1F16423B1FB84
:104BD400F3F21201100903FB1011A08900B200289E
:104BE40006DAC9003231B1FBF3F303F0070005E044
:104BF40009013231B1FBF3F303F00F00024390B229
:104C0400208107B030BD00BF0038014000214FF4BF
:104C140016530C2203608180C1800181428181810D
:104C240070470B8810B54C88028A23438C88C98846
:104C340092B223430B4322F4706213439BB2038268
:104C440010BD0023038043808380C3807047838921
:104C540019B199B241F4005303E023F400510A045A
:104C6400130C83817047C1F3421310B5012401F082
:104C74001F01A34204FA01F101D10C3004E0022B1C
:104C840001D1103000E01430036812B143EA01028C
:104C940001E023EA0102026010BD838A9BB20AB1DB
:104CA400194301E023EA010181827047038A23F05A
:104CB4000F0213041A0C0282038A9AB2114301826E
:104CC4007047838923F4006213041A0C8281838958
:104CD4009AB2114381817047838919B199B241F025
:104CE400020303E023F002010A04130C83817047DA
:104CF400038A23F0200213041A0C0282038A9AB254
:104D0400114301827047038A19B199B241F4804377
:104D140003E023F480410A04130C03827047C9059D
:104D2400CA0D828070478088C105C80D7047838989
:104D340099B241F0010282817047038BDAB2028397
:104D4400038B9AB242EA012101837047038B03F477
:104D54007F420283038B9AB2114301837047838A93
:104D640019B199B241F0200303E023F020010A04B1
:104D7400130C83827047838A19B199B241F01003EE
:104D840003E023F010010A04130C83827047838A22
:104D940019B199B241F0080303E023F008010A04B1
:104DA400130C83827047838929B16FEA43436FEA06
:104DB40053418AB201E059044A0C82817047838AC4
:104DC40019B199B241F4006303E023F400610A04C9
:104DD400130C83827047838A23F0040213041A0C91
:104DE4008282838A9AB2114381827047838A19B17D
:104DF40099B241F0020303E023F002010A04130C08
:104E040083827047038819420CBF00200120704739
:104E1400C9438AB20280704710B5C1F3421401221B
:104E240001F01F03012C02FA03F201D1838903E08C
:104E3400022C0CBF038A838A9BB20088134082B27F
:104E440043B1090A012303FA01F010420CBF002008
:104E5400012010BD184610BD090A012303FA01F30D
:104E6400DA4391B20180704713B5FEF7C3F9FEF738
:104E740061FB4FF440500021FEF7DCFB01200146AA
:104E8400FEF74EFF1D4B4FF080625A600420012153
:104E9400FEF746FF4FF420401021ADF804008DF8D2
:104EA4000710174801A903248DF80640FEF733FDC7
:104EB400FEF79CFA0A20124CFEF76DFA4FF40052EA
:104EC400E2604FF47A70FEF766FA4FF40043E36051
:104ED4000C48FEF7FDFA0C48FEF7FAFA0B48FEF709
:104EE400F7FA0B48FEF7F4FA0A48FEF7F1FA0A4813
:104EF400FEF7EEFA4FF47A70DDE700BF00000140E0
:104F040000080140D04F0008E74F0008FE4F00089A
:104F1400155000082C50000843500008002100F0F0
:104F240004B80C4B5B58435004310B480B4B4218EC
:104F34009A42FFF4F6AF0A4A00F003B8002342F89D
:104F4400043B084B9A42FFF4F9AFFEF753F9FFF71D
:104F54008BFF704748500008000000203C000020F0
:104F64003C00002080000020FFF7FEBF20F003017A
:104F740010F00300C0F1000051F8043B00F1040CF0
:104F84004FEACC0C6FF000021CBF22FA0CF2134360
:104F94004FF0010C4CEA0C2C4CEA0C4CA3EB0C0229
:104FA40022EA030212EACC1204BF51F8043B043093
:104FB400F4D013F0FF0F1FBF013013F47F4F013003
:104FC40013F47F0F18BF0130704700BF413A2054DB
:104FD400686973206973206D657373616765204127
:104FE4002E0A00423A2054686973206973206D6563
:104FF400737361676520422E0A00433A205468693E
:1050040073206973206D65737361676520432E0A8D
:1050140000443A2054686973206973206D65737382
:1050240061676520442E0A00453A2054686973205C
:105034006973206D65737361676520452E0A000DE1
:045044000A0000005E
:1050480000A24A040000000000000000010203045E
:1050580006070809A08C00000000000000002400DA
:10506800000000000000000000000000010203042E
:0C507800010203040607080902040608F0
:00000001FF
