:020000040800F2
:1030000000500020915E0008E5310008E73100081B
:10301000E9310008EB310008ED3100080000000044
:10302000000000000000000000000000EF31000878
:10303000F131000800000000F3310008F53100080C
:10304000DD5E0008DD5E0008DD5E0008DD5E000874
:10305000DD5E0008DD5E0008DD5E0008DD5E000864
:10306000DD5E0008DD5E0008DD5E0008DD5E000854
:10307000DD5E0008DD5E0008DD5E0008DD5E000844
:10308000DD5E0008ED3F0008DD5E0008DD5E000843
:10309000DD5E0008DD5E0008DD5E0008DD5E000824
:1030A000DD5E0008DD5E0008DD5E0008DD5E000814
:1030B000DD5E0008DD5E0008DD5E0008DD5E000804
:1030C000DD5E0008DD5E0008DD5E0008DD5E0008F4
:1030D000DD5E0008DD5E0008DD5E0008DD5E0008E4
:1030E000DD5E0008DD5E0008DD5E0008DD5E0008D4
:1030F000DD5E0008DD5E0008DD5E0008DD5E0008C4
:10310000DD5E0008DD5E0008DD5E0008DD5E0008B3
:10311000DD5E0008DD5E0008DD5E0008DD5E0008A3
:10312000DD5E0008DD5E0008DD5E0008DD5E000893
:10313000000000000000000000000000000000008F
:10314000000000000000000000000000000000007F
:10315000000000000000000000000000000000006F
:10316000000000000000000000000000000000005F
:10317000000000000000000000000000000000004F
:10318000000000000000000000000000000000003F
:10319000000000000000000000000000000000002F
:1031A000000000000000000000000000000000001F
:1031B000000000000000000000000000000000000F
:1031C00000000000000000000000000000000000FF
:1031D00000000000000000000000000000000000EF
:0431E0005FF8E0F1C3
:1031E4007047FEE7FEE7FEE7FEE77047704770476B
:1031F40070470000394B82B01A6842F00100186031
:103204005968374A0A405A60186820F0847121F4DA
:1032140080321A60186820F4802119605A684FF4CB
:103224001F0122F4FE00002258609960009201926E
:10323400186840F480311960284B1A6802F4003091
:10324400019000994A1C0092019818B90099B1F5AF
:10325400A06FF1D11B6813F4003218BF0122019250
:103264000198012804D01F4A1F4B9A6002B070478E
:103274001E490B6843F010020A60086820F003033B
:103284000B600A68A1F5805342F002000860596897
:1032940059605A685A60586840F4806159605A68A5
:1032A40022F47C105860596841F4E8125A60186896
:1032B40040F0807119601868084A8101FBD5536891
:1032C40023F003015160506840F002035360034A45
:1032D400516801F00C000828F9D1C4E7001002403D
:1032E4000000FFF80030000800ED00E0002002407C
:1032F400144A154B516801F00C00042803D0082827
:1033040004D0124900E0124919600FE05168506876
:10331400C1F383410231C00301D40E4804E0526872
:1033240090034CBF0C480A4841431960054B5A6846
:10333400054BC2F3031019181A68087922FA00F22F
:103344001A607047001002400000002000127A004A
:10335400001BB70000093D00808D5B0008B54FF0ED
:103364008040082102F0E7F94FF08040022102F08A
:103374000EFA4FF08040012101F0C5FF4FF080406C
:1033840002F02CFB01460028F8D14FF08040BDE844
:10339400084001F0B8BF10B504460120014601F011
:1033A40011FB06496000441C4FF080408C8001F002
:1033B4002DFEBDE81040FFF7D1BF00BF1400002070
:1033C40010B504460120014601F0FCFA60000649EC
:1033D400441CCC814FF080400A3101F017FEBDE857
:1033E4001040FFF7BBBF00BF1400002013B50E4C04
:1033F4002389984201D9FF2014E06428FBD8B3FB49
:10340400F0F0411E02AA02F8011D3420012100F04F
:10341400DFFB0028EFD19DF807302289591C92FB6D
:10342400F1F262841CBD00BF3C00002013B5154BB3
:1034340004461A791AB31888A0421ED0B4F5FA7F4C
:103444000CD003D8FA2C1AD100210AE0B4F57A7F03
:1034540006D0B4F5FA6F12D1182102E0082100E079
:1034640010218DF807101B2001210DF1070200F037
:10347400AFFB20B9034B1C8002E0002000E0FF20DA
:103484001CBD00BF3C00002013B5134B04461A7941
:1034940002B35888A0421BD0042C0AD003D8022CB3
:1034A40018D1002108E0082C05D0102C12D11821C5
:1034B40002E0082100E010218DF807101C200121F2
:1034C4000DF1070200F084FB20B9034B5C8002E09D
:1034D400002000E0FF201CBD3C00002013B5164B6B
:1034E40004461A791AB35879A04222D0BB2C01D9C8
:1034F400012110E0612C01D902210CE0292C01D911
:10350400032108E0132C01D9042104E0092C01D97A
:10351400052100E006218DF807101A2001210DF184
:10352400070200F055FB10B9034B5C7102E0FF2069
:1035340000E000201CBD00BF3C00002008B1FFF7E4
:1035440055BFFF20704773B5194B1A790AB9FF208C
:103554002CE0997F0029FAD1032805D9B0F57A7FA8
:1035640028BF4FF47A7000E004204FF47A7595FB7D
:10357400F0F0461E02AA02F8016D1920012100F0A4
:1035840027FB06460028E2D1094C9DF80730608CE1
:103594005A1C95FBF2F5642828BF64202581FFF7A7
:1035A400CDFF21894808FFF799FF30467CBD00BF55
:1035B4003C00002037B5304D04462B7B834258D065
:1035C4006A2001210DF1070204B300F0DBFA08B10F
:1035D400FF204FE09DF807106A2021F020028DF8AB
:1035E400072001210DF1070200F0F2FA0028EFD1C3
:1035F4000320FFF7D0FE287F02238DF8073010B197
:1036040082218DF807101C4A507F21E000F0BAFA9D
:103614000028DDD128799DF8071010F0010F14BFA0
:1036240041F0200121F020018DF807106A200121CA
:103634000DF1070200F0CCFA0028C9D10320FFF7EE
:10364400AAFE0D4A137F03B18023507F8DF8073003
:1036540028B19DF8073043F030008DF8070037207B
:1036640001210DF1070200F0B3FA0028B0D102499C
:103674000C7300203EBD00BF3C000020F7B50020C5
:10368400FFF798FF0C2630460021012201AB00F021
:10369400FCFA18B99DF80430482B03D00136F6B271
:1036A400102EF0D102AC1027524D04F8047D3046A0
:1036B4000A210122234685F8246000F088FB08B122
:1036C400FF2096E00120FFF766FE1F208DF804001E
:1036D4000A2195F824000122234600F078FB0028F3
:1036E400EED10120FFF757FE95F824003946032256
:1036F400234600F0CAFA0028E2D19DF804109DF890
:1037040005209DF80630803180328033E9842A8593
:103714006B8595F824000A21012223468DF8047054
:1037240000F055FB0028CBD10120FFF734FE4D20DB
:103734008DF8040001212420224600F049FA0028D3
:10374400BED195F82410252061F07F028DF8042065
:103754000121224600F03CFA0028B1D102232620A0
:10376400012122468DF8043000F032FA0028A7D156
:1037740088208DF8040001212720224600F028FA31
:1037840000289DD195F8241028208DF80410224695
:10379400012100F01DFA002892D10A228DF804209C
:1037A40029200121224600F013FA002888D102AC16
:1037B400812304F8043D2A200121224600F008FA5E
:1037C40000287FF47DAF11208DF8040001216420CE
:1037D400224600F0FDF900287FF472AF03218DF832
:1037E400041067200121224600F0F2F900287FF43A
:1037F40067AFFEBD3C00002037B5802302AD6B20CF
:1038040001216A4605F8083D00F0E2F9044608B1D2
:10381400FF204FE06420FFF7BEFD6B2001216A46C4
:103824008DF8004000F0D4F90028F1D130208DF853
:10383400000001216A206A4600F0CAF90028E7D195
:103844006A2001216A4600F0C3F90028E0D11A4C2D
:10385400482160738DF800101D2001216A4600F094
:10386400B7F90028D4D101226077E073A073A07760
:10387400E07720844FF4FA60A2712277FFF7D6FD37
:103884000028C5D10220FFF7FFFD0028C0D12A205F
:10389400FFF724FE0028BBD16420FFF754FE002864
:1038A400B6D1FFF7EBFE0028B2D16420FFF79EFDEE
:1038B4000028ADD13EBD00BF3C00002013B5154B20
:1038C40004465A7F824221D018B130208DF8070077
:1038D40001E08DF80700197B29B19DF8073043F00A
:1038E40002028DF807200B48017F29B19DF80730AB
:1038F40063F07F028DF80720372001210DF10702C4
:1039040000F066F920B903494C7702E0002000E09A
:10391400FF201CBD3C00002010F0700337B50446A6
:1039240001D0012301E000B940236B2001210DF1F6
:1039340006028DF8063000F04BF9404B08B1002226
:1039440035E09DF8062022F04001997104F040030F
:10395400DAB212B18DF8060002E004208DF80600F8
:1039640004F02001CBB22BB99DF8062042F00200EE
:103974008DF8060004F01001CBB22BB99DF8062097
:1039840042F001008DF8060004F00801CBB22BB917
:103994009DF8062042F038008DF806006C200121C5
:1039A4000DF1060200F014F920B1244B00221A7123
:1039B400FF2042E01CB1082C01D0FFF77FFF6A20F2
:1039C40001210DF1070200F0DDF80028F0D114F018
:1039D400010F9DF8071005D011208DF8060041F065
:1039E400200204E010238DF8063021F02002134950
:1039F4008DF807208A7F9DF8073012B163F07F00AD
:103A040001E003F07F008DF80700012164200DF12F
:103A1400060200F0DDF80028CAD16A2001210DF168
:103A2400070200F0D5F805460028C1D10349887380
:103A340032200C71FFF7AFFC28463EBD3C0000204D
:103A440013B5134B0446187900F00801CAB20AB939
:103A5400FF201BE03B2006216A4600F093F8002873
:103A6400F6D19DF800109DF8013043EA01229DF83B
:103A740002109DF80330228043EA01229DF80410CD
:103A84009DF80530628043EA0122A2801CBD00BF7C
:103A94003C00002030B5012187B01D4D41F20400E7
:103AA40000F084FF0320E02318248DF80200694607
:103AB4002846ADF800308DF8034000F072FD102167
:103AC400ADF800108DF803102846694600F069FD32
:103AD400ADF810400F4C4FF4007000234FF4827285
:103AE400ADF80E0001A92046ADF80430ADF806206B
:103AF400ADF80830ADF80A30ADF80C30ADF812303E
:103B040001F00AF82046012101F08DF807B030BD1C
:103B140000080140003001400148102100F0ADBD13
:103B2400000801400148102100F0A5BD0008014033
:103B340010B504460A48022101F0FAF80028F9D029
:103B44000748214601F0A0F80548012101F0F0F8EA
:103B54000028F9D0024801F099F8C0B210BD00BFA6
:103B64000030014010B50446FFF7D6FF44F0800052
:103B7400FFF7DEFF0020FFF7DBFF0446FFF7D2FF6D
:103B8400204610BD70B504460D461646FFF7C4FF27
:103B940044F08000FFF7CCFF0024AC4205D20020A3
:103BA400FFF7C6FF30550134F7E7FFF7BBFF0020EE
:103BB40070BD38B505460C46FFF7AEFF2846FFF743
:103BC400B7FF2046FFF7B4FFFFF7ACFF002038BD76
:103BD40070B504460D461646FFF79EFF2046FFF7D4
:103BE400A7FF0024AC4204D2305D0134FFF7A0FFEC
:103BF400F8E7FFF797FF002070BD30B585B00023CC
:103C040004468DF80710154601210DF107023220F4
:103C14008DF80F30FFF7DCFF0120FFF7BCFB64F0E9
:103C24007F0001210DF107028DF807003120FFF715
:103C3400CFFF0120FFF7AFFB80218DF807100DF1B6
:103C4400070201213420FFF7C3FF0120FFF7A3FB84
:103C54003424013C16D00DF10F0201213620FFF768
:103C640091FF0120FFF797FB9DF80F2002F040031E
:103C7400D8B20028EDD0352001212A46FFF782FF73
:103C8400002000E0FE2005B030BD2DE9F74360F0D0
:103C94007F00174602AA02F8010D0024884631204D
:103CA400012199468DF80640FFF792FF0120FFF7A6
:103CB40072FB2546E3B2BB4237D203EB080102AEE6
:103CC40006F8011D324601213220FFF781FF012051
:103CD400FFF761FB80228DF8072001213246342052
:103CE400FFF776FF0120FFF756FB284601353228FF
:103CF4001DD801210DF106023620FFF743FF0220F3
:103D0400FFF749FB9DF80630284603F04001CAB28C
:103D1400002AEBD009EB040201213520FFF732FF22
:103D24000120FFF738FB0134C4E7002000E0FE2047
:103D3400BDE8FE8373B502AC04F8010D00230E4602
:103D440015460121224631208DF80630FFF740FF49
:103D54000120FFF720FB2246012132208DF8076065
:103D6400FFF736FF0120FFF716FB2246012133201F
:103D74008DF80750FFF72CFF0120FFF70CFB802084
:103D840022468DF8070001213420FFF721FF01208E
:103D9400FFF701FB3424013C17D001210DF1060289
:103DA4003620FFF7EFFE0120FFF7F5FA9DF8061025
:103DB40001F04002D3B2002BEDD001F01000C1B2EB
:103DC400002914BFFD20002000E0FE207CBD2DE969
:103DD400F743174602AA02F8010D00248846312051
:103DE400012199468DF80640FFF7F2FE0120FFF706
:103DF400D2FA2546E3B2BB423DD203EB080002AE41
:103E040006F8010D012132463220FFF7E1FE0120C0
:103E1400FFF7C1FA012109EB04023320FFF7D8FEB2
:103E24000120FFF7B8FA802132468DF807103420BC
:103E34000121FFF7CDFE0120FFF7ADFA2A46013537
:103E4400332A1AD001210DF106023620FFF79AFE1B
:103E54000120FFF7A0FA9DF806302A4603F040003F
:103E6400C1B20029EBD003F01003DAB20134002A06
:103E7400C0D0FD2002E0002000E0FE20BDE8FE836B
:103E840030B5042087B0012100F090FD1E4C0121C3
:103E94004FF4003000F096FD0320182104238DF820
:103EA40006008DF80710204601A91D46ADF8043020
:103EB40000F077FB0822204601A9ADF80420A4F500
:103EC40044448DF8075000F06CFB00200C214FF4A3
:103ED4006143ADF80C00ADF80E00ADF81000ADF87C
:103EE4001400ADF81210204602A9029301F0E2FD7D
:103EF40020468021012201F07CFE2046012101F0B0
:103F040052FE07B030BD00BF0008014070B5134C2D
:103F1400064601208CB00D46014600F03BFD2046CC
:103F240000F0F0F90E4B0021102080220193039041
:103F340005910791089109914FF440530B91204644
:103F440001A90692029604950A9300F053FA2046BA
:103F54000221012200F086FA0CB070BD80000240FC
:103F64000444004010B5154B1A785B78591C8A42FA
:103F740000D120E00F2B03D112B90029FDD11AE0A2
:103F84000F4C0E4944F82300581CC0B2102808BF37
:103F940000209A4248700FD154F82240204601F084
:103FA4009DFF81B22046FFF7B1FF06480121BDE81D
:103FB400104000F04CBAFEE710BD00BF68000020BE
:103FC4006C0000208000024007B5002011238DF80A
:103FD40005008DF80600012101A88DF804308DF844
:103FE400071000F039F90EBD10B54FF0007000F065
:103FF4005FFA012823D10021114800F028FA114B5F
:104004001A78501CC1B2102908BF002119701A78FF
:104014005B7893420DD00C4C54F82240204601F0BA
:104024005DFF81B22046FFF771FF0548012100F0D2
:104034000EFA4FF00070BDE8104000F047BA10BD12
:1040440080000240680000206C000020F0B5002AC7
:104054000CBF6122412285B0054618B10DF10D0453
:10406400002009E030208DF80E000DF10D0601202E
:1040740014E0013C082811D005F00F075FFA87FC13
:10408400BCF1090F84F801C0C6BFA2F10A0C674451
:10409400303701302D0926466770EAD10A9CA042C8
:1040A40007DA002B0CBF2024302406F80149013024
:1040B400F4E70023834204DAF2185278CA54013335
:1040C400F8E705B0F0BD2DE9F04389B00392002272
:1040D400054617460B78002B00F0A380252B40F0F3
:1040E4009B8091F90100302803D001F101080023DD
:1040F40002E001F10208012398F80040A4F1300124
:10410400092904D860B2303808F1010800E0002021
:1041140098F8004061B2642917D00ADC58295ED0AF
:10412400632971D1039B18681A1D03922870012218
:104134006DE073295ED0782966D1039A0090111D31
:10414400039110682946002250E0039E341D36680E
:104154000394002E07D130228DF81E20F3B90122DA
:104164000DF11D0430E002DA7642012100E0002165
:1041740000220DF11E044FF00A0996FBF9FC09FB1D
:104184001C66303604F80169664601320EB1082A0D
:10419400F1D1A3B131B10138012103E031460DF170
:1041A4001D040122824204DA302304F80139013269
:1041B400F8E761B12D2004F80109013207E019B1D3
:1041C4002D2304F80139013220238242F9DB002334
:1041D40093421CDAE1184878E8540133F8E7039A6B
:1041E4000090111D0391106829460122FFF72EFF4C
:1041F40002460CE0039B0022181D196803908B5C97
:104204002BB1AB540132FAE7013705F8014BBF1863
:10421400AD1808F101015DE705F8013B01310137F3
:1042240058E72B70384609B0BDE8F0830EB403B5E7
:1042340003AA52F8041B0192FFF745FFBDE80C40A6
:1042440003B0704740F0BF60024B40F40031D960C6
:10425400704700BF00ED00E0C37810B503B3164CFF
:10426400E168CB43C3F302244178C4F1040201FAA8
:1042740002F10F2222FA04F28478037822400A43DE
:10428400110103F16043CAB203F5614181F80023CF
:104294000078012200F01F03410902FA03F007E04D
:1042A4000078012200F01F03410902FA03F02031D3
:1042B400024B43F8210010BD00ED00E000E100E0F6
:1042C40021F0604121F07F02014B10439860704758
:1042D40000ED00E0044B1A6909B1104301E022EA41
:1042E40000001861704700BF00ED00E0044B042893
:1042F4001A680CBF42F0040222F004021A607047EC
:1043040010E000E002684FF6FE73134003602D4B8B
:1043140000219842016041608160C16022D02A4935
:10432400884229D0294B984230D02949884237D035
:10433400284B98423ED0284B984206D153F8681C2B
:1043440041F4700043F8680C70472449884206D150
:1043540051F87C0C40F0706241F87C2C7047204B83
:10436400984206D153F8042C42F00F0143F8041C80
:1043740070471C49884206D151F8183C43F0F000BC
:1043840041F8180C7047184B984206D153F82C2C5E
:1043940042F4706143F82C1C70471449884206D1DA
:1043A40051F8403C43F4704041F8400C7047104BC6
:1043B400984205D153F8542C42F4702143F8541C0C
:1043C400704700BF080002401C0002403000024059
:1043D40044000240580002406C0002408000024049
:1043E400080402401C040240300402404404024019
:1043F4005804024070B506688C680D6A26F4FF42C2
:1044040022F070060A6945EA04034C6913438A6979
:104414002343CC6913431C434B6A44EA03028B6A6B
:104424001A4332430260CB680A6849684360826079
:10443400C16070BD0023036043608360C360036197
:1044440043618361C361036243628362704719B14C
:10445400016841F0010303E002684FF6FE73134064
:104464000360704703680AB1194301E023EA0101BC
:104474000160704741607047406880B27047C30074
:104484004CBF044B044B196801420CBF00200120AF
:10449400704700BF0004024000000240C3004CBF4C
:1044A400014B024B58607047000402400000024078
:1044B400C3004CBF034B044B196801420CBF0020DE
:1044C400012070470004024000000240C3004CBFBA
:1044D400014B024B58607047000402400000024048
:1044E40008B5234B984205D10420012100F076FA47
:1044F400042036E01F49884205D10820012100F03C
:104504006DFA08202DE01C4A904205D110200121AB
:1045140000F064FA102024E0184B984205D12020C2
:10452400012100F05BFA20201BE01549884205D1E7
:104534004020012100F052FA402012E0114A90423A
:1045440005D18020012100F049FA802009E00E4BBA
:1045540098420BD14FF48070012100F03FFA4FF4E0
:1045640080700021BDE8084000F038BA08BD00BFE3
:1045740000080140000C01400010014000140140FB
:1045840000180140001C01400020014001200146A8
:1045940008B500F023FA01200021BDE8084000F02E
:1045A4001DBACB78F0B5DA0648BF8A78098803F0DB
:1045B4000F0548BF154311F0FF0F1ED004680022F9
:1045C400012707FA02F707EA0106BE4211D1970054
:1045D4004FF00F0C0CFA07FC05FA07F724EA0C0459
:1045E400282B44EA070401D1466102E0482B08BFA6
:1045F40006610132082AE3D10460FF2920D9446806
:10460400002202F10806012707FA06F707EA010665
:10461400BE4211D197004FF00F0C0CFA07FC05FABB
:1046240007F724EA0C04282B44EA070401D1466165
:1046340002E0482B08BF06610132082AE1D1446038
:10464400F0BD4FF6FF730221042203808170C27013
:104654007047836819420CBF0020012070478068AE
:1046640080B27047C36819420CBF00200120704714
:10467400C06880B2704701617047416170470AB1F8
:104684000161704741617047C160704741F48033F4
:10469400836181618361836983697047054A10B5C9
:1046A40014684FF68073234041EA001141EA030085
:1046B400106010BD00000140014B1860704700BF3E
:1046C4001C0020420028174B30B500F44014B4BF3E
:1046D400DB695B68B4F5401F82B207D1114C23F04B
:1046E4007063656825F0706565600FE0C40205D5E8
:1046F400C0F30344032505FA04F403E0440D240144
:1047040002FA04F423EA040343F0706321B1410D77
:10471400090102FA01F2134300280248B4BFC3613D
:10472400436030BD0000014001F0030230B5920047
:104734000F2404FA02F400FA02F0074B890802314C
:1047440053F8215025EA040443F8214053F821404A
:10475400044343F8214030BD00000140014B186080
:10476400704700BFDC0020420D4B1A6842F0010084
:10477400186059680B4A0A405A60186820F084711E
:1047840021F480321A60186820F4802119605A6874
:104794004FF41F0122F4FE0058609960704700BF77
:1047A400001002400000FFF80B4BB0F5803F1A6880
:1047B40022F4803119601A6822F48021196006D02D
:1047C400B0F5802F07D1186840F4A02202E01968E0
:1047D40041F480321A60704700100240034B1A689B
:1047E40022F0F80141EAC00018607047001002404E
:1047F400014B1860704700BF00004242034B5A68E7
:1048040022F47C12104301435960704700100240A7
:10481400014B1860704700BF60004242034B5A6866
:1048240022F0030108435860704700BF00100240A3
:10483400024B586800F00C00704700BF00100240A3
:10484400034B5A6822F0F00108435860704700BFD8
:1048540000100240034B5A6822F4E0610843586098
:10486400704700BF00100240034B5A6822F46051A5
:1048740041EAC0005860704700100240044B1A78A7
:1048840009B1104301E022EA00001870704700BF2C
:1048940009100240014B1860704700BFD800424223
:1048A400034B5A6822F4404108435860704700BFE4
:1048B40000100240064B002201281A701A7004D01E
:1048C400042804D10520187001E01870704770475F
:1048D40020100240014B1860704700BF8004424220
:1048E400024B1A6A10431862704700BF001002405E
:1048F400014B1860704700BF3C0442421F4B10B587
:104904005A6802F00C01042903D0082904D01C4A77
:1049140000E01C4A02600FE05C685968C4F38342FB
:10492400941CC90301D4184904E05B6899034CBF83
:10493400164914494C430460104A154B5468C4F397
:1049440003115C5C016821FA04F141605468C4F30A
:1049540002241C5D21FA04F484605468C4F3C22464
:104964001C5D21FA04F1C1605268C2F381329B18C4
:104974001A7CB1FBF2F1016110BD00BF00100240CE
:1049840000127A00001BB70000093D00808D5B0017
:1049940028000020044B5A6909B1104301E022EABF
:1049A40000005861704700BF00100240044B9A6930
:1049B40009B1104301E022EA00009861704700BF8A
:1049C40000100240044BDA6909B1104301E022EA05
:1049D4000000D861704700BF00100240044BDA6841
:1049E40009B1104301E022EA0000D860704700BF1B
:1049F40000100240044B1A6909B1104301E022EA95
:104A040000001861704700BF00100240014B18609D
:104A1400704700BF40044242014B1860704700BF1A
:104A24004C004242014B1870704700BF071002400F
:104A34004309012B074A01D1136803E0022B0CBF81
:104A4400136A536A00F01F0023FA00F101F0010019
:104A5400704700BF0010024007B5002301933120C6
:104A6400FFF7E6FF01994A1C0192019BB3F5A06F81
:104A740001D00028F3D03120FFF7DAFF003018BF4F
:104A840001200EBD024B5A6A42F080705862704792
:104A940000100240034B996808420CBF002001201B
:104AA400704700BF00100240014B1870704700BFF0
:104AB4000A10024008B5154B98420BD101214FF45E
:104AC4008050FFF78BFF4FF480500021BDE8084071
:104AD400FFF784BF0E49884207D14FF4804001217B
:104AE400FFF788FF4FF4804009E00A4A90420BD157
:104AF4004FF400400121FFF77DFF4FF400400021F7
:104B0400BDE80840FFF776BF08BD00BF0030014094
:104B140000380040003C00400B8810B54C880288E7
:104B240023438C8802F441522343CC8823430C89C9
:104B340023434C8923438C892343CC89098A234307
:104B44001A4393B20380828B22F400631A04130C79
:104B54008383018210BD838BF0B5054623F47B600B
:104B64000C4620F00F010A04160C0223AE832B849A
:104B7400A368A88B022B87B086B223D001A8A7888C
:104B8400FFF7BCFEE288002F14BF02270127B2F50D
:104B9400007F01994FF00A0001D10B0A02E07F0166
:104BA400B1FBF7F35843A168B0FBF1F2501D83B297
:104BB4000A21B3FBF1F000F001021102C0F34F032C
:104BC40088B200E000209A1E91B2FE2928BF00207E
:104BD40028BF02230343E088228803439BB246EAAA
:104BE40002012B84638841F40060A288A1891843E0
:104BF4001043084380B2A88307B0F0BD0023072107
:104C0400038043808380C380038143818381C38184
:104C14000182704700230222038043808380C38083
:104C2400826083817047038819B199B241F04003CF
:104C340003E023F040010A04130C03807047838BC4
:104C440019B199B241F4806303E023F480610A044A
:104C5400130C838370470909012303FA01F39BB200
:104C64001AB1828891B20B4303E0828891B221EA9F
:104C740003038380704783889BB20AB1194301E020
:104C840023EA01018180704781817047808980B265
:104C940070474FF6FF639942018803D08AB242F409
:104CA400807103E021F480721304190C01807047B1
:104CB400838819B199B241F0040303E023F004019D
:104CC4000A04130C83807047038823F400621304DE
:104CD4001A0C028003889AB211430180704703883A
:104CE40099B241F4805202807047038819B199B295
:104CF40041F4005303E023F400510A04130C03802D
:104D04007047012914BF008B808A80B27047008AE3
:104D140080B27047B1F5804F038803D199B241F452
:104D2400804303E023F480410A04130C038070479A
:104D3400038919420CBF002001207047C9438AB27D
:104D440002817047012301F00F0203FA02F210B549
:104D540084880089A4B280B2104006D0090903FAFD
:104D640001F31C420CBF0020012010BD01F00F0113
:104D7400012303FA01F3DA4391B20181704700BFC2
:104D840030B5048C24F001052C04250C0584048B17
:104D9400A5B225F0F3052A4342EA0313114A048C11
:104DA4009042A4B29DB215D002F50063984211D08E
:104DB400B0F1804F0ED0A3F5983290420AD002F59C
:104DC4008063984206D003F58062904218BF24F0B5
:104DD4000A0401D124F0020444F0010421430583B0
:104DE400018430BD002C014030B5048C24F0100542
:104DF4002C04250C0584048B058C24F440742405B0
:104E0400240D44EA022242EA0333144AADB290422A
:104E14009BB212D002F5006290420ED0B0F1804FE6
:104E24000BD0A2F59832904207D002F580629042EE
:104E340003D002F58062904207D125F0200242F0AF
:104E4400100545EA011189B204E025F0A00545F0FA
:104E5400100529430383018430BD00BF002C0140A9
:104E640008B55A4B984207D14FF400600121FFF76F
:104E7400B5FD4FF40060A2E0B0F1804F05D10120F0
:104E84000146FFF7B7FD012007E05149884209D1E7
:104E940002200121FFF7AEFD02200021BDE80840F9
:104EA400FFF7A8BD4B4A904205D104200121FFF72A
:104EB400A1FD0420F1E7484B984205D108200121C7
:104EC400FFF798FD0820E8E74449884205D11020FF
:104ED4000121FFF78FFD1020DFE7414A904205D101
:104EE40020200121FFF786FD2020D6E73D4B984284
:104EF40007D14FF400500121FFF770FD4FF400502B
:104F04005DE03949884207D14FF400200121FFF7C1
:104F140065FD4FF4002052E0344A904207D14FF42B
:104F240080100121FFF75AFD4FF4801047E0304B09
:104F3400984207D14FF400100121FFF74FFD4FF4C1
:104F440000103CE02B49884205D140200121FFF7A5
:104F540051FD4020A1E7284A904205D1802001213B
:104F6400FFF748FD802098E7244B984207D14FF47F
:104F740080700121FFF73EFD4FF480708DE72049DA
:104F8400884207D14FF480300121FFF727FD4FF409
:104F9400803014E01B4A904207D14FF400300121C5
:104FA400FFF71CFD4FF4003009E0174B98420BD17A
:104FB4004FF480200121FFF711FD4FF480200021E0
:104FC400BDE80840FFF70ABD08BD00BF002C014042
:104FD4000004004000080040000C004000100040A5
:104FE4000014004000340140004C014000500140D6
:104FF4000054014000180040001C00400020004004
:10500400004001400044014000480140224A038816
:1050140090429BB212D002F5006290420ED0B0F1E1
:10502400804F0BD0A2F59832904207D002F58062EF
:10503400904203D002F58062904203D14A8823F063
:1050440070031343154A904208D002F580629042DF
:1050540004D023F44073CA889BB2134303808B8823
:105064000A8883850C4B028598420FD003F50062B1
:1050740090420BD002F54063984207D003F580625A
:10508400904203D002F58063984201D1097A0186E7
:1050940001228282704700BF002C014000100040B2
:1050A400038C70B523F001021404250C0584068CCE
:1050B4008388028B9CB222F073052B040D881A0C92
:1050C40026F0020633042A434E880D891B0C35430F
:1050D400ADB22B43134DA8420FD005F50065A8428D
:1050E4000BD005F54065A84207D005F58065A842B8
:1050F40003D005F58065A8420ED123F008064B893C
:105104008D881E4326F004032B43CE898D8924F415
:1051140040743543ADB22C43C988848002838186B0
:10512400038470BD002C0140038C30B523F01002C1
:105134001404250C0584038C8288048B23F020033B
:1051440024F4E6452C040D88240C44EA05241D04AB
:105154002B0C0D8992B243EA05134D88A4B243EA9D
:105164000513124D9BB2A84203D005F50065A84271
:1051740015D14D8923F080039BB243EA05134FF602
:10518400BF751D408B8822F4406245EA0315ABB21B
:105194008D8942EA8502CD8942EA850292B2C988A4
:1051A400828004830187038430BD00BF002C01404A
:1051B400038C30B523F480721404250C0584038C0D
:1051C4008288848B23F4007324F073052C040D88E7
:1051D400240C2C431D042B0C0D8992B243EA0523A5
:1051E4004D8843EA0523124D9BB2A84203D005F52E
:1051F4000065A84215D14D8923F400639BB243EAAC
:1052040005234FF6FF351D408B8822F4405245EAB2
:105214000325ABB28D8942EA0512CD8942EA051213
:1052240092B2C988828084838187038430BD00BFA1
:10523400002C0140038C30B523F480521404250C57
:105244000584038C8288858B94B225F4E642150488
:105254002A0C0D8823F4005342EA05221D042B0C6A
:105264000D8992B243EA05334D8843EA05330A4D6A
:105274009BB2A84203D005F50065A84205D18D89EB
:1052840024F4804444EA8514A4B2C98884808283C7
:10529400A0F84010038430BD002C01404A880B88DC
:1052A40013438A881343CA8813430A8913434A89D8
:1052B400898913430B439BB2A0F844307047002103
:1052C4004FF6FF7383800180C18041800172704773
:1052D4000023038043808380C380038143818381CF
:1052E400C381704700230122038043808280C380EE
:1052F400038170470023038043808380C38003813C
:10530400438183817047038819B199B241F0010345
:1053140003E023F001010A04130C03807047B0F882
:10532400443029B16FEA43436FEA53418AB201E042
:1053340059044A0CA0F84420704783899BB20AB1EF
:10534400194301E023EA010181817047818270479A
:105354000A43A0F84820704783899BB20AB11943D5
:1053640001E023EA010181817047038923F00701E9
:105374000A04130C03817047038923F07002130499
:105384001A0C1143018101898BB243F00702028197
:10539400704738B50D4611460122602D044602D1EE
:1053A400FFF722FD01E0FFF7EBFC238923F07000F7
:1053B40001040A0C45EA02032381208981B241F0E9
:1053C4000702228138BD10B50489E4B221430A439F
:1053D40042EA03239CB2048110BD10B50446FFF7D2
:1053E400F2FF238998B240F48041218110BD10B5A9
:1053F4000446FFF7E8FF238923F0770001040A0C31
:1054040042F07703238110BD0185828270470388AF
:1054140023F0700213041A0C1143018070470389AE
:1054240023F0700213041A0C11430181704770B504
:105434000589048B068C24F44074B6B224F003046A
:1054440026F0220625F00705240432432D04240CFB
:105454002D0C44F4807442EA0313294344F00104FC
:105464009EB201810483068470BD038B23F0700215
:1054740013041A0C114301837047038B23F4E04295
:1054840013041A0C42EA01218BB203837047838B05
:1054940023F0700213041A0C114381837047838B29
:1054A40023F4E04213041A0C42EA01218BB28383F1
:1054B4007047038819B199B241F0800303E023F0E7
:1054C40080010A04130C03807047838819B199B2D0
:1054D40041F0040303E023F004010A04130C838065
:1054E4007047838819B199B241F0080303E023F0AF
:1054F40008010A04130C83807047838819B199B298
:1055040041F0010303E023F001010A04130C83803A
:105514007047038B23F0080213041A0C1143018310
:105524007047038B23F4006213041A0C42EA01212E
:105534008BB203837047838B23F0080213041A0C85
:10554400114381837047838B23F4006213041A0C84
:1055540042EA01218BB283837047038B23F0040258
:1055640013041A0C114301837047038B23F48062E4
:1055740013041A0C42EA01218BB203837047838B14
:1055840023F0040213041A0C114381837047838BA4
:1055940023F4806213041A0C42EA01218BB2838340
:1055A4007047038B23F0800213041A0C1143018308
:1055B4007047038B09025A0441EA52439AB20283A8
:1055C4007047838B23F0800213041A0C11438183E8
:1055D4007047838B09025A0441EA52439AB2828388
:1055E4007047038C23F0020213041A0C1143018444
:1055F4007047038C23F0080213041A0C114301842E
:105604007047038C23F0200213041A0C42EA0111A0
:105614008BB203847047038C23F0800213041A0CAA
:1056240042EA01118BB203847047038C23F40072A5
:1056340013041A0C42EA01218BB203847047038CD1
:1056440023F4006213041A0C42EA01218BB203848E
:105654007047038C23F4005213041A0C42EA0131FC
:105664008BB203847047012303FA01F302FA01F2B7
:1056740010B5048CA4B224EA03030384038C42EA25
:1056840003018AB2028410BD042303FA01F302FA6F
:1056940001F210B5048CA4B224EA03030384038C3E
:1056A40042EA03018AB2028410BD30B5012404FA2F
:1056B40001F4058C00F11803ADB225EA0404048456
:1056C40009B1082906D14908C85820F07000C8500B
:1056D400C85809E00439C1F34E01C858120220F435
:1056E400E040C850C85892B20243CA5030BD038843
:1056F40019B199B241F0020303E023F002010A0454
:10570400130C03807047038819B199B241F0040364
:1057140003E023F004010A04130C03807047838818
:1057240019B199B241F0800303E023F080010A0427
:10573400130C83807047038823F0080213041A0CA7
:10574400028003889AB2114301807047838823F052
:10575400700213041A0C828083889AB211438180E8
:105764007047038923F0070213041A0C028103898A
:105774009AB2114301817047038923F08002130414
:105784001A0C028103899AB2114301817047818402
:10579400704781857047818670470187704781878C
:1057A4007047A0F840107047038B23F00C021304D9
:1057B4001A0C0283038B9AB2114301837047038B43
:1057C40023F4406213041A0C0283038B9AB242EA54
:1057D40001218BB203837047F8B50C46A28849882F
:1057E400B4F800E0054600290CBF02270027012A6F
:1057F40014BF012602262389BEF1000F11D1FFF741
:10580400BFFA2846E188FFF7CFFF284639463246DB
:105814002389FFF7E9FAE1882846BDE8F840FFF755
:10582400CEBFFFF7E1FA2846E188FFF7C8FF284614
:10583400394632462389FFF7A3FAE1882846BDE8B2
:10584400F840FFF7B1BF838B23F00C0213041A0C4A
:105854008283838B9AB2114381837047838B23F4B1
:10586400406213041A0C8283838B9AB242EA0121A8
:105874008BB283837047F8B50B880D46044649887C
:10588400AA8843B92B89FFF77BFAE9882046BDE84B
:10589400F840FFF789BF042B08D12B89FFF7A4FA3E
:1058A400E9882046BDE8F840FFF789BF082B0E467B
:1058B4002F89008C3BD120F480731804030C2384BB
:1058C400A08B83B223F0F30343EA0717364B208CF3
:1058D400BFB29C4280B247EA020212D003F50063D1
:1058E4009C420ED0B4F1804F0BD0A3F598339C4268
:1058F40007D003F580639C4203D003F580639C4288
:1059040007D120F4007040EA06218BB243F480737F
:1059140005E020F4206041F4807140EA0103E98845
:105924002046A2832384BDE8F840FFF78CBF20F40F
:1059340080531804030C2384A38B208C23F440731A
:105944001B051B0D43EA022242EA0733164A80B2C2
:1059540094429BB212D002F5006294420ED0B4F18C
:10596400804F0BD0A2F59832944207D002F58062A2
:10597400944203D002F58062944207D120F400508F
:1059840040EA063291B241F4805205E047F6FF52F4
:10599400024041F480510A43E9882046A3832284CB
:1059A400BDE8F840FFF75ABF002C0140038823F4F8
:1059B400407213041A0C028003889AB211430180C6
:1059C4007047808E80B27047008F80B27047808F9E
:1059D40080B27047B0F8400080B27047808C80B2CB
:1059E4007047008D80B27047038A19420CBF0020B3
:1059F40001207047C9438AB202827047038A8289B0
:105A040011EA030092B203D011420CBF002001201E
:105A14007047C9438AB20282704700BF08B5204B61
:105A240098420BD101214FF48040FEF7D7FF4FF489
:105A340080400021BDE80840FEF7D0BF19498842E4
:105A440007D14FF400300121FEF7D4FF4FF40030AA
:105A54001FE0154A904207D14FF480200121FEF740
:105A6400C9FF4FF4802014E0104B984207D14FF443
:105A740000200121FEF7BEFF4FF4002009E00C498D
:105A840088420BD14FF480100121FEF7B3FF4FF48D
:105A940080100021BDE80840FEF7ACBF08BD00BF80
:105AA400003801400044004000480040004C0040E1
:105AB40000500040038A30B50D460446EA8898B287
:105AC40020F4405111432182A3892889A98823F411
:105AD400B05340EA0102688923F00C010243080430
:105AE400030C1A4391B2A181A08AAA8983B223F438
:105AF400407187B01143A18201A8FEF7FFFE184848
:105B0400A38984420CBF0498039819B200294FF06A
:105B140019032A6803FB00F001DA510000E0910048
:105B2400B0FBF1F16423B1FBF3F21201100903FBA2
:105B34001011A08900B2002806DAC9003231B1FB85
:105B4400F3F303F0070005E009013231B1FBF3F38D
:105B540003F00F00024390B2208107B030BD00BFB4
:105B64000038014000214FF416530C220360818059
:105B7400C18001814281818170470B8810B54C88B6
:105B8400028A23438C88C98892B223430B4322F4AC
:105B9400706213439BB2038210BD002303804380D1
:105BA4008380C3807047838919B199B241F400534B
:105BB40003E023F400510A04130C83817047C1F3FA
:105BC400421310B5012401F01F01A34204FA01F1AC
:105BD40001D10C3004E0022B01D1103000E014306C
:105BE400036812B143EA010201E023EA0102026000
:105BF40010BD838A9BB20AB1194301E023EA010173
:105C040081827047038A23F00F0213041A0C028264
:105C1400038A9AB2114301827047838923F4006294
:105C240013041A0C828183899AB2114381817047CB
:105C3400838919B199B241F0020303E023F0020110
:105C44000A04130C83817047038A23F0200213048F
:105C54001A0C0282038A9AB2114301827047038AA2
:105C640019B199B241F4804303E023F480410A045A
:105C7400130C03827047C905CA0D8280704780885F
:105C8400C105C80D7047838999B241F00102828130
:105C94007047038BDAB20283038B9AB242EA012182
:105CA40001837047038B03F47F420283038B9AB210
:105CB400114301837047838A19B199B241F02003DB
:105CC40003E023F020010A04130C83827047838AC3
:105CD40019B199B241F0100303E023F010010A0452
:105CE400130C83827047838A19B199B241F0080377
:105CF40003E023F008010A04130C838270478389AC
:105D040029B16FEA43436FEA53418AB201E059046F
:105D14004A0C82817047838A19B199B241F40063B5
:105D240003E023F400610A04130C83827047838A1E
:105D340023F0040213041A0C8282838A9AB2114358
:105D440081827047838A19B199B241F0020303E05A
:105D540023F002010A04130C83827047038819425A
:105D64000CBF002001207047C9438AB202807047EB
:105D740010B5C1F34214012201F01F03012C02FAF1
:105D840003F201D1838903E0022C0CBF038A838AC6
:105D94009BB20088134082B243B1090A012303FA7B
:105DA40001F010420CBF0020012010BD184610BDA8
:105DB400090A012303FA01F3DA4391B2018070471F
:105DC40010B58AB0FDF716FAFEF7FEF84FF440500E
:105DD4000021FEF775FA01200146FEF7E7FD284B86
:105DE4004FF080625A6004200121FEF7DFFD4FF47A
:105DF40020401021ADF808008DF80B10214802A9AD
:105E040003248DF80A40FEF7CCFBFEF739F8642032
:105E1400FDF7C1FAFDF73EFE6420FDF7BCFAFDF77D
:105E2400EBFC6420FDF7B7FA002416484FF4005148
:105E340044B9FEF720FC13484FF40041FEF71DFC63
:105E4400012407E0FEF719FC0E484FF40041FEF769
:105E540012FC00244FF47A70FDF79DFA03A8FDF7B5
:105E6400EFFDBDF91000BDF90C200090BDF90E3016
:105E740005A80549FEF7DAF905A8FEF773F8D4E793
:105E84000000014000080140405F0008002100F0CC
:105E940004B80C4B5B58435004310B480B4B42186D
:105EA4009A42FFF4F6AF0A4A00F003B8002342F81E
:105EB400043B084B9A42FFF4F9AFFDF79BF9FFF757
:105EC4007FFF7047585F0008000000203C0000205E
:105ED4003C000020AC000020FFF7FEBF20F00301CF
:105EE40010F00300C0F1000051F8043B00F1040C71
:105EF4004FEACC0C6FF000021CBF22FA0CF21343E1
:105F04004FF0010C4CEA0C2C4CEA0C4CA3EB0C02A9
:105F140022EA030212EACC1204BF51F8043B043013
:105F2400F4D013F0FF0F1FBF013013F47F4F013083
:105F340013F47F0F18BF0130704700BF783A202553
:105F4400642C20793A2025642C207A3A2025640A8E
:045F54000000000049
:105F580000A24A040000000000000000010203043F
:105F680006070809A08C00000000000000002400BB
:105F7800000000000000000000000000010203040F
:0C5F8800010203040607080902040608D1
:00000001FF
